{
  "contractName": "ItemManager",
  "abi": [
    {
      "anonymous": false,
      "inputs": [
        {
          "indexed": false,
          "internalType": "uint256",
          "name": "_itemIndex",
          "type": "uint256"
        },
        {
          "indexed": false,
          "internalType": "uint256",
          "name": "_step",
          "type": "uint256"
        },
        {
          "indexed": false,
          "internalType": "address",
          "name": "_itemAddress",
          "type": "address"
        }
      ],
      "name": "SupplyChainStep",
      "type": "event"
    },
    {
      "inputs": [],
      "name": "isOwner",
      "outputs": [
        {
          "internalType": "bool",
          "name": "",
          "type": "bool"
        }
      ],
      "stateMutability": "view",
      "type": "function",
      "constant": true
    },
    {
      "inputs": [
        {
          "internalType": "uint256",
          "name": "",
          "type": "uint256"
        }
      ],
      "name": "items",
      "outputs": [
        {
          "internalType": "contract Item",
          "name": "_item",
          "type": "address"
        },
        {
          "internalType": "string",
          "name": "_identifier",
          "type": "string"
        },
        {
          "internalType": "uint256",
          "name": "_itemPrice",
          "type": "uint256"
        },
        {
          "internalType": "enum ItemManager.SupplyChainState",
          "name": "_state",
          "type": "uint8"
        }
      ],
      "stateMutability": "view",
      "type": "function",
      "constant": true
    },
    {
      "inputs": [
        {
          "internalType": "string",
          "name": "_identifier",
          "type": "string"
        },
        {
          "internalType": "uint256",
          "name": "_itemPrice",
          "type": "uint256"
        }
      ],
      "name": "createItem",
      "outputs": [],
      "stateMutability": "nonpayable",
      "type": "function"
    },
    {
      "inputs": [
        {
          "internalType": "uint256",
          "name": "_itemIndex",
          "type": "uint256"
        }
      ],
      "name": "triggerPayment",
      "outputs": [],
      "stateMutability": "payable",
      "type": "function",
      "payable": true
    },
    {
      "inputs": [
        {
          "internalType": "uint256",
          "name": "_itemIndex",
          "type": "uint256"
        }
      ],
      "name": "triggerDelivery",
      "outputs": [],
      "stateMutability": "nonpayable",
      "type": "function"
    }
  ],
  "bytecode": "0x6080604052336000806101000a81548173ffffffffffffffffffffffffffffffffffffffff021916908373ffffffffffffffffffffffffffffffffffffffff1602179055506110c1806100536000396000f3fe60806040526004361061004a5760003560e01c8063800fb83f1461004f5780638c5517421461007d5780638f32d59b1461014f578063bfb231d21461017e578063cd31831e14610281575b600080fd5b61007b6004803603602081101561006557600080fd5b81019080803590602001909291905050506102bc565b005b34801561008957600080fd5b5061014d600480360360408110156100a057600080fd5b81019080803590602001906401000000008111156100bd57600080fd5b8201836020820111156100cf57600080fd5b803590602001918460018302840111640100000000831117156100f157600080fd5b91908080601f016020809104026020016040519081016040528093929190818152602001838380828437600081840152601f19601f820116905080830192505050505050509192919290803590602001909291905050506104ea565b005b34801561015b57600080fd5b50610164610771565b604051808215151515815260200191505060405180910390f35b34801561018a57600080fd5b506101b7600480360360208110156101a157600080fd5b81019080803590602001909291905050506107c8565b604051808573ffffffffffffffffffffffffffffffffffffffff1673ffffffffffffffffffffffffffffffffffffffff1681526020018060200184815260200183600281111561020357fe5b60ff168152602001828103825285818151815260200191508051906020019080838360005b83811015610243578082015181840152602081019050610228565b50505050905090810190601f1680156102705780820380516001836020036101000a031916815260200191505b509550505050505060405180910390f35b34801561028d57600080fd5b506102ba600480360360208110156102a457600080fd5b81019080803590602001909291905050506108bd565b005b34600160008381526020019081526020016000206002015414610347576040517f08c379a000000000000000000000000000000000000000000000000000000000815260040180806020018281038252601f8152602001807f4f6e6c792066756c6c207061796d656e7473206172652061636365707465640081525060200191505060405180910390fd5b6000600281111561035457fe5b6001600083815260200190815260200160002060030160009054906101000a900460ff16600281111561038357fe5b146103d9576040517f08c379a00000000000000000000000000000000000000000000000000000000081526004018080602001828103825260238152602001806110696023913960400191505060405180910390fd5b600180600083815260200190815260200160002060030160006101000a81548160ff0219169083600281111561040b57fe5b02179055507fa4035636e99f06b7651a604c1019fa4e8779fe68ef27eeb74dff2de348f6199b816001600084815260200190815260200160002060030160009054906101000a900460ff16600281111561046157fe5b6001600085815260200190815260200160002060000160009054906101000a900473ffffffffffffffffffffffffffffffffffffffff16604051808481526020018381526020018273ffffffffffffffffffffffffffffffffffffffff1673ffffffffffffffffffffffffffffffffffffffff168152602001935050505060405180910390a150565b6104f2610771565b610564576040517f08c379a00000000000000000000000000000000000000000000000000000000081526004018080602001828103825260158152602001807f596f7520617265206e6f7420746865206f776e6572000000000000000000000081525060200191505060405180910390fd5b6000308260025460405161057790610af8565b808473ffffffffffffffffffffffffffffffffffffffff1673ffffffffffffffffffffffffffffffffffffffff1681526020018381526020018281526020019350505050604051809103906000f0801580156105d7573d6000803e3d6000fd5b5090508060016000600254815260200190815260200160002060000160006101000a81548173ffffffffffffffffffffffffffffffffffffffff021916908373ffffffffffffffffffffffffffffffffffffffff16021790555082600160006002548152602001908152602001600020600101908051906020019061065d929190610b05565b508160016000600254815260200190815260200160002060020181905550600060016000600254815260200190815260200160002060030160006101000a81548160ff021916908360028111156106b057fe5b02179055507fa4035636e99f06b7651a604c1019fa4e8779fe68ef27eeb74dff2de348f6199b60025460016000600254815260200190815260200160002060030160009054906101000a900460ff16600281111561070a57fe5b83604051808481526020018381526020018273ffffffffffffffffffffffffffffffffffffffff1673ffffffffffffffffffffffffffffffffffffffff168152602001935050505060405180910390a1600260008154809291906001019190505550505050565b60008060009054906101000a900473ffffffffffffffffffffffffffffffffffffffff1673ffffffffffffffffffffffffffffffffffffffff163373ffffffffffffffffffffffffffffffffffffffff1614905090565b60016020528060005260406000206000915090508060000160009054906101000a900473ffffffffffffffffffffffffffffffffffffffff1690806001018054600181600116156101000203166002900480601f01602080910402602001604051908101604052809291908181526020018280546001816001161561010002031660029004801561089a5780601f1061086f5761010080835404028352916020019161089a565b820191906000526020600020905b81548152906001019060200180831161087d57829003601f168201915b5050505050908060020154908060030160009054906101000a900460ff16905084565b6108c5610771565b610937576040517f08c379a00000000000000000000000000000000000000000000000000000000081526004018080602001828103825260158152602001807f596f7520617265206e6f7420746865206f776e6572000000000000000000000081525060200191505060405180910390fd5b6001600281111561094457fe5b6001600083815260200190815260200160002060030160009054906101000a900460ff16600281111561097357fe5b146109e6576040517f08c379a000000000000000000000000000000000000000000000000000000000815260040180806020018281038252601c8152602001807f4974656d206973206675727468657220696e2074686520636861696e0000000081525060200191505060405180910390fd5b60026001600083815260200190815260200160002060030160006101000a81548160ff02191690836002811115610a1957fe5b02179055507fa4035636e99f06b7651a604c1019fa4e8779fe68ef27eeb74dff2de348f6199b816001600084815260200190815260200160002060030160009054906101000a900460ff166002811115610a6f57fe5b6001600085815260200190815260200160002060000160009054906101000a900473ffffffffffffffffffffffffffffffffffffffff16604051808481526020018381526020018273ffffffffffffffffffffffffffffffffffffffff1673ffffffffffffffffffffffffffffffffffffffff168152602001935050505060405180910390a150565b6104be80610bab83390190565b828054600181600116156101000203166002900490600052602060002090601f016020900481019282601f10610b4657805160ff1916838001178555610b74565b82800160010185558215610b74579182015b82811115610b73578251825591602001919060010190610b58565b5b509050610b819190610b85565b5090565b610ba791905b80821115610ba3576000816000905550600101610b8b565b5090565b9056fe608060405234801561001057600080fd5b506040516104be3803806104be8339818101604052606081101561003357600080fd5b81019080805190602001909291908051906020019092919080519060200190929190505050816000819055508060028190555082600360006101000a81548173ffffffffffffffffffffffffffffffffffffffff021916908373ffffffffffffffffffffffffffffffffffffffff160217905550505050610405806100b96000396000f3fe6080604052600436106100385760003560e01c80632986c0e51461030e5780633c8da5881461033957806389794d0014610364576102ff565b366102ff576000600154146100b5576040517f08c379a00000000000000000000000000000000000000000000000000000000081526004018080602001828103825260138152602001807f4974656d206973207061696420616c726564790000000000000000000000000081525060200191505060405180910390fd5b346000541461012c576040517f08c379a000000000000000000000000000000000000000000000000000000000815260040180806020018281038252601a8152602001807f4f6e6c792066756c6c207061796d656e747320616c6c6f77656400000000000081525060200191505060405180910390fd5b346001600082825401925050819055506000600360009054906101000a900473ffffffffffffffffffffffffffffffffffffffff1673ffffffffffffffffffffffffffffffffffffffff1634600254604051602401808281526020019150506040516020818303038152906040527f800fb83f000000000000000000000000000000000000000000000000000000007bffffffffffffffffffffffffffffffffffffffffffffffffffffffff19166020820180517bffffffffffffffffffffffffffffffffffffffffffffffffffffffff83818316178352505050506040518082805190602001908083835b6020831061023b5780518252602082019150602081019050602083039250610218565b6001836020036101000a03801982511681845116808217855250505050505090500191505060006040518083038185875af1925050503d806000811461029d576040519150601f19603f3d011682016040523d82523d6000602084013e6102a2565b606091505b50509050806102fc576040517f08c379a000000000000000000000000000000000000000000000000000000000815260040180806020018281038252602e8152602001806103a2602e913960400191505060405180910390fd5b50005b34801561030b57600080fd5b50005b34801561031a57600080fd5b5061032361038f565b6040518082815260200191505060405180910390f35b34801561034557600080fd5b5061034e610395565b6040518082815260200191505060405180910390f35b34801561037057600080fd5b5061037961039b565b6040518082815260200191505060405180910390f35b60025481565b60005481565b6001548156fe546865207472616e73616374696f6e207761736e2774207375636365737366756c212043616e63656c6c696e6721a2646970667358221220c20bf473172dc164f473d9e02e792f9e0ab6f60058ec379e220365d0e884c3ab64736f6c634300060100334974656d206973206675727468657220696e2074686520737570706c7920636861696ea2646970667358221220939aa047d7f64d4a8d9705dc68158b4cf744bee7217e9e2ae5b7c7dfef2ecc7864736f6c63430006010033",
  "source": "pragma solidity ^0.6.0;\n\nimport \"./Ownable.sol\";\nimport \"./Item.sol\";\ncontract ItemManager is Ownable {\n\n    enum SupplyChainState{Created,Paid,Delivered}\n\n    struct S_Item {\n        Item _item;\n        string _identifier ; \n        uint _itemPrice;\n        ItemManager.SupplyChainState _state;\n    }\n\n    mapping(uint => S_Item) public items ;\n    uint itemIndex;\n\n    event SupplyChainStep(uint _itemIndex, uint _step , address _itemAddress );\n\n    function createItem(string memory _identifier , uint _itemPrice) public onlyOwner{\n        Item item = new Item(this,_itemPrice, itemIndex);\n        items[itemIndex]._item = item ;\n        items[itemIndex]._identifier = _identifier;\n        items[itemIndex]._itemPrice = _itemPrice;\n        items[itemIndex]._state = SupplyChainState.Created;\n        emit SupplyChainStep(itemIndex, uint(items[itemIndex]._state) , address(item));\n        itemIndex++;\n    }\n\n    function triggerPayment(uint _itemIndex) public payable {\n        require(items[_itemIndex]._itemPrice == msg.value, \"Only full payments are accepted\"); \n        require(items[_itemIndex]._state == SupplyChainState.Created , \"Item is further in the supply chain\"); \n        items[_itemIndex]._state = SupplyChainState.Paid;\n        emit SupplyChainStep(_itemIndex, uint(items[_itemIndex]._state), address(items[_itemIndex]._item));\n    }\n\n    function triggerDelivery(uint _itemIndex) public onlyOwner {\n      require(items[_itemIndex]._state == SupplyChainState.Paid , \"Item is further in the chain\"); \n      items[_itemIndex]._state = SupplyChainState.Delivered;\n      emit SupplyChainStep(_itemIndex, uint(items[_itemIndex]._state) , address(items[_itemIndex]._item));\n    }\n}",
  "sourcePath": "/Users/hichem/Documents/Udemy/Etherium Blockchain Development Bootcamp With Solidity (2021)/Section7 - SupplyChain/etherium-supply-chain/react-truffle/contracts/ItemManager.sol",
  "compiler": {
    "name": "solc",
    "version": "0.6.1+commit.e6f7d5a4.Emscripten.clang"
  },
  "schemaVersion": "3.4.4",
  "updatedAt": "2022-01-04T11:20:55.503Z",
  "networkType": "ethereum",
  "devdoc": {
    "methods": {}
  },
  "userdoc": {
    "methods": {}
  }
}